:020000041000EA
:101000004805002019100010000000009910001081
:1010100000040100000100001149124A124B00F0C7
:1010200018F8124880471249124A134B00F011F881
:101030001249134A134B00F00CF81349134A0020CD
:10104000521A02DD043A8850FCDC114880471148EE
:1010500080479B1A03DD043BC858D050FBDC704727
:10106000803200100C000020440100201D110010EF
:10107000B8330010480500205C060020CC34001076
:1010800060060020F80F0020F80F00206C130020ED
:101090004D2D0010E1290010FEE700007047C0460A
:1010A0000C4A08B513680C491B041B0E0B60FF218A
:1010B00012681140094A1160002B03D10848094BFE
:1010C000186008BD1B025918074801F00BFB4000CF
:1010D000F5E7C04600030140F80F0020FC0F002098
:1010E0000048E801FC3F0020000024F4C0228021D9
:1010F00008B5074BC9055A62064A074B13601368C7
:101100000B42FCD1C322024B5A62FFF7C9FF08BD54
:1011100000000140000301400001F13F08B5FFF766
:10112000BDFFFFF7E3FF08BD8022054B1201DA6225
:101130009A60DA601A611A805A809A807047C046B5
:10114000501000208A2238B5854B52009A58120759
:101150003AD5844C636D01335A2B33D90023636530
:10116000E36A022B4ED0092B48D07F4800F0A6FC42
:10117000A3687E4DD800C0188301C018C00A28603B
:10118000206180B200F0C0FC63687948DA00D218B0
:101190009301D3182A68DB0AD31A2B6000F08EFC67
:1011A0002B68002B00DAC8E0724800F087FC288822
:1011B00000F0AAFC704800F081FC704B188C00F025
:1011C000A3FC00E0636538BD8E2252009B586C4C36
:1011D0000220238000F086FC6A4800F06FFC238820
:1011E0002022191C914358291AD0203B9BB2412B35
:1011F00000D99EE0644A9B00D3589F46634800F0A4
:101200005DFCE0E7624800F059FC5C4C208900F08E
:101210007BFCA08900F078FC208A00F075FCD2E706
:101220005C4800F04BFCCEE78022544B52015A48F8
:101230001A6200F069FC594800F040FCC3E7002244
:101240004E4B00201A6200F05FFC554800F036FC5F
:10125000B9E78022494B5201196A914273D851482B
:1012600000F02CFCAFE7CC22444B5200196A9142AB
:101270006ED94D4800F022FCA5E79A223F4BFF3281
:101280004A481A6200F040FC494800F017FC9AE70F
:10129000484A3A4B48481A6200F036FC474800F08A
:1012A0000DFC90E7464A354B46481A6200F02CFC8C
:1012B000454800F003FC86E7444A304B44481A6234
:1012C00000F022FC434800F0F9FB7CE780222B4B26
:1012D000120141481A6200F017FC404800F0EEFB92
:1012E00071E73F4A254B3F481A6200F00DFC3E482B
:1012F00000F0E4FB67E73D4A204B3D481A6200F0EE
:1013000003FC3C4800F0DAFB5DE73B4A1B4B3B48E3
:101310001A6200F0F9FB3A4800F0D0FB53E7394A73
:10132000164B39481A6200F0EFFB384800F0C6FB54
:1013300049E7374800F0C2FB45E75B4235482B6080
:1013400000F0BCFB33E714481A6200F0DDFB3AE71B
:101350009A221648FF321A6200F0D6FB33E7C046E5
:101360000002004844120020D42F0010101000206A
:10137000DC2F0010E82F0010EC2F00105010002080
:1013800048050020102F0010082E0010A82F001074
:10139000C42F0010202F0010AEB700007C2F0010CB
:1013A0002C2F0010842F0010902F00105E120000D0
:1013B000342F001033030000BC2400003C2F001029
:1013C000CC0400001A370000442F0010660600000D
:1013D000784900004C2F0010D75B0000542F0010FC
:1013E00099090000356E00005C2F0010330B0000DF
:1013F00093800000642F0010CC0C0000F1920000DC
:101400006C2F0010660E00004FA50000742F001016
:101410009C2F0010E42F0010F0B54746444C454E79
:1014200080B4454D201C454901F066F9301C444903
:1014300001F0A8F9281C434901F0A4F9301C03214C
:1014400001F00AFA281C032101F006FA201C01F021
:1014500075F980238021E25849020A438021E25035
:10146000E25889020A43E250281C374901F02AFA5F
:101470008223032101275B00EA5888468A43EA5009
:10148000EA58281C3A43EA50304B00211A68882356
:101490005B00EA502E4A1268EA502E4A01F052FAD6
:1014A000281C01212C4A01F04DFA301C00212B4A46
:1014B00001F048FA301C2A4A012101F043FA301C9D
:1014C000002101F0C9F9281C002101F0C5F9002212
:1014D000301C012101F0C8F9301C002101F0D6F9BF
:1014E000281C01F0CDF9281C032101F0B5F9812356
:1014F00010229B00E1581B480A438021E250E25829
:1015000089000A434146E250E2588A43E250E258D9
:1015100000211743E7500022012301F0BDF9942276
:1015200002235200B1580B43B35004BC9046F0BDA7
:101530000000034800040348000803489405002005
:10154000B00500206C050020EC050020E805002017
:10155000AC050020D80500205C0500204C050020CB
:10156000800500200040034810B5064C0721201CD0
:10157000054A01F0E7F9054B1A6888235B00E25041
:1015800010BDC04600080348C40500209005002097
:1015900010B5064C0621201C054A01F0D3F9054B75
:1015A0001A6888235B00E25010BDC046000803485B
:1015B000F8050020D405002010B5074C0021201CA0
:1015C00000F0A0FF201C002100F0B6FF8022E3689D
:1015D00052001343E36010BD00000448F8B55F46B5
:1015E00056464D464446F0B4A027FF05381C00215E
:1015F00000F0AAFF8022FB6852001343FB606B4B94
:101600006B4C98466B4E6C4D191C201C00F0B4FFBF
:10161000301C414600F0B0FF281C414600F0ACFFF2
:10162000664B6749181C994600F0A6FF654B201CC5
:101630009846191C01F020F8301C414601F01CF8B6
:10164000281C414601F018F800225F4BE26348462F
:1016500063644146F2637364EA636B6401F00CF8FF
:101660004A465A4B201CD363594B5364594B9846F6
:101670004246594B41465360936001F019F8301CC3
:10168000414601F015F8281C414601F011F83B696C
:10169000524A201C13433B61A4239A46E258A33BC1
:1016A000134352460021A350002200F0E7FFC62258
:1016B0004B4B920098469A584A4BC62113408022C1
:1016C0001202134342468900535080239B04136047
:1016D000454B201C9B461A1C012100F09DFF301C2D
:1016E0005A46012100F098FF281C5A46012100F0BB
:1016F00093FF48465A46012100F08EFF3B4A3C4B7F
:10170000116B201C0B4013630F23FA680321134352
:10171000FB60384F3A1C00F07FFF301C3A1C03215D
:1017200000F07AFF3A1CF027281C032100F074FF18
:10173000201C0121012200F051FF63697F033B431C
:10174000301C63610121012200F048FF7369281CED
:101750003B4373610121012200F040FF6B6980224D
:101760003B436B615346E358D20013435246201C5F
:10177000A3500A21A33A00F081FFC62243469200FB
:101780009A581D4BC621134042468900535080236E
:10179000DB041360B0221949A3580B43A3503CBC8F
:1017A00090469946A246AB46F8BDC04624060020A6
:1017B00000010050000200500003005000040050DF
:1017C00008060020AA100000AB1000005508000019
:1017D00056080000180600203535000011110000E1
:1017E00000E100E0FF00FFFF3406002000000140A0
:1017F000FFFEFFFF38060020FFFF00FF010C000086
:10180000F0B547461D4B80B41D4F181C1D4E0121DD
:10181000012298461C4D00F0CDFE381C012101220A
:1018200000F0C8FE301C0121012200F0C3FE281C7C
:101830000121012200F0BEFE8022144C5200236BD5
:101840004046134323630021002200F0B3FE381CFE
:101850000021002200F0AEFE301C0021002200F02A
:10186000A9FE281C0021002200F0A4FE226B084BD8
:101870001340236304BC9046F0BDC04600010050F5
:10188000000200500003005000040050000001401E
:10189000FFFEFFFF08B5094B09491A680948920580
:1018A000920D0A60012299680A439A600722D9685A
:1018B0000A43DA6000F006FE08BDC046000401409D
:1018C000201000203C06002010B5174C0B21201CD6
:1018D000164A00F039FD201C0021A82200F0F0FE7D
:1018E000201C0121A82200F0EBFE201C0221B822BE
:1018F00000F0E6FE201C0321B82200F0E1FE201CCF
:101900000821A82200F0DCFE201C0921A82200F0FA
:10191000D7FE201C0C21102200F0D2FE0448042126
:10192000802200F0CDFE10BD0000044048060020DB
:1019300000010440802008B5400000F043FD002273
:101940006221024B5A6059641A6408BD00000340CA
:1019500000B583B0FFF79EFF002301930199124B5E
:101960001A1C994205D8019B01330193019B9342B4
:10197000F9D9FFF733FEFFF71FFE00F019F8FFF764
:10198000D9FFFFF7A1FF094800F098F800F048FCE4
:10199000FFF742FDFFF7FCFDFFF7E6FD00F016F94B
:1019A000FFF72EFF03B000BDFEFF07000830001058
:1019B000C022324B70B55A62314BB83A1A6180225C
:1019C000D2051D681540FCD1C3222C4B2D4C5A6208
:1019D0000323E268A0211343E36022692A4B2B4EC4
:1019E0001340236123692A4AC904134323616269AE
:1019F000284B2948134063616369284A1343636194
:101A0000626B274B13406363636B264A1343636324
:101A1000A26B254B1340A022A363A36BD2001343F8
:101A2000A363E26B214B1340E363E36B204A134350
:101A3000E36384235B00E2583240E250E2580A43F9
:101A4000E2500321002200F03BFE8623E5615B00AB
:101A5000E25818491640E650E2580F480A43E2504F
:101A60000221B82200F02CFE226C134B1340236499
:101A70000223226C1343236470BDC0460000014062
:101A80000003014000020048003CFFFFC0FFFFF8D8
:101A90002B830000EC8000FC0001044000241500B2
:101AA000FFFCC0F002010707FFF3FFFFFD00FFFF8F
:101AB0000109000020000005F0FCFFFF10B5041C28
:101AC00003782034002B0AD0C0220549520001E0DF
:101AD000A04204D08B5001300378002BF8D110BD08
:101AE0000002004830B5002300280AD0C0220D258E
:101AF0000A240449520001339BB28D508C5083421A
:101B0000F9D130BD000200482B4A2C4B2C495A63B6
:101B1000092288420FD92B4918625962C0212A48EC
:101B2000490042501A6B2549002AFBD18A6AC86ACB
:101B3000303280B292B2FA21204B89001862596289
:101B4000C0212148490042501A1C116B1B4B00292F
:101B5000FBD19A6AD96A12040904090C196264213A
:101B6000120C596218481D313032FF3142501A1C94
:101B7000116B124B0029FBD19A6AD96A120409042D
:101B8000090C19620A21120C59620F487731303260
:101B9000FF314250196B094A0029FBD1936A0A4868
:101BA0001B041B0C8131FF3130334350D36A1B04BB
:101BB0001B0C30334350704704800000000003408A
:101BC0000F270000102700000002004808B5024857
:101BD00000F0F4FE08BDC04650060020802208B583
:101BE000044B12055A600922034B0448DA62FFF7DE
:101BF00065FF08BD00000440441200201C300010A6
:101C0000104B10B5DA6A092A03D000220E4B1A6075
:101C100010BD0E4A126A312AF7DC0B490A680132FC
:101C20000A600B498A42F3D9B02180240948E400B4
:101C30004258224342508021074A09015160032241
:101C4000DA62E5E744120020001000205010002066
:101C50004C1D0000000100500000044038B51C4C31
:101C60001C4B221C5888198801F0AEF8A168208806
:101C7000CA00531AE168C318CA006088DB08A36071
:101C8000531A2169C318DB08A088CA00E360531AFD
:101C9000C318114DDB082361EB6B581C236AE86302
:101CA000312B02DC0023EB6338BD00F0E9FF0B4968
:101CB00000F018FF0028F7D00623EB620023084A43
:101CC0006B86EB632B64136053609360ECE7C04654
:101CD00050100020181000204412002000009643ED
:101CE000C410002038B5394B394C59889A88188867
:101CF000231C01F059F83749226889886568A36870
:101D000000293AD1E9185200501A3349334C414363
:101D100021603349EB1A4B436360324C324A636CA7
:101D200001336364934214D8304D288B7B2834D917
:101D3000698B01F041F8AB68A0682B612B8B9B038A
:101D4000AB6000F0A7F8E36A002B01D100F070F857
:101D500038BD0023A2682649244D4A606260E362D0
:101D600063866364288B234A011C926991400A1C94
:101D700021498A60214A9360DAE72149098B0229C7
:101D80000FD8002918D11649EA18EB1A4B4313480B
:101D90005242920302604360BFE70A3080B2288358
:101DA000C6E70529EFD00D4993030B606B00D218ED
:101DB0000B4B5A434A60B0E75B009003D218114BBB
:101DC00006495A4308604A60A7E7C0465010002001
:101DD000C41000201810002055150000BC10002071
:101DE000F324000044120020DB0500009C100020BA
:101DF00020110020A812002070110020481100209E
:101E0000981100200DDBFFFF074A0849D368400303
:101E10005361098E002904D0181AD0600014508331
:101E200070471818F9E7C0469C10002044120020A3
:101E30001A22124B10B51A60083A1A810F3A9A8189
:101E4000013A1A820E4A54215A8100225A528021A4
:101E50004901D9830B490C488968DA6419649A648A
:101E60005A64DA651A859A83084B01611024185F59
:101E700081409960064B1A835A8310BDC811002017
:101E8000AA1000004412002054130020201100204A
:101E90009811002070B53B4C3B4D221C82B06888E5
:101EA000298800F091FF20886188A288374C231C84
:101EB00000F07AFF0DCCA988002944D1D118400048
:101EC000401A33494143D21A324B334C5A432160B2
:101ED0006260324EF06800F087FF012230490B6CDF
:101EE0001A42FCD12F4C201C00F076FF2E4B2F4DB8
:101EF0005A680094B1682B68606800F07DFF6268E2
:101F0000F36894462A4A63441360012224490B6C07
:101F10001A42FCD1201C00F03FFFA3680122991354
:101F20003823FF334B431912A160288A8240531E85
:101F30002A6A5A438B1803416A6A2B629B181D4A0E
:101F4000136002B070BD1C49098B022905D8002915
:101F50000ED1D11849428903B5E70529F9D05200BD
:101F60000C4B82185A430C4C810321606260B0E72D
:101F70005A00124B82185A43074C81032160626059
:101F8000A7E7C0465010002018100020C410002001
:101F900055150000F3240000BC1000209C10002008
:101FA000000003405413002020110020C81100201D
:101FB00024100020F4100020981100200DDBFFFFFA
:101FC00070B54D4C4D4D231C6988AA88288800F0B7
:101FD000EBFE4B49226889886668A368002931D1E5
:101FE000F1185200501A4749474C41432160474974
:101FF000F31A4B436360464A4649136808684649EA
:1020000001331360884244D0296A31290CDC002155
:10201000081C424B11609960FFF7F6FE404B002010
:10202000598B00F0C9FE70BDC82B26D90023136060
:10203000FFF7D4FA00F03CF9FFF7E2FB0622374B3A
:10204000DA62F0E73749098B02290BD8002917D14A
:102050002E49F218F31A4B432B4852429203026066
:102060004360C8E70529F3D0274993030B60730049
:10207000D218264B5A434A60BDE7284B9868CBE7F5
:102080005B009003D218284B1F495A4308604A60EE
:10209000B1E780218023254A8904D150244B25496A
:1020A0009A8925484A60DA898A6010229B5ECB6053
:1020B000224B9A890A61DA894A6110229B5E8B6100
:1020C0001F4B9A89CA61DA890A6210229B5E4B62B1
:1020D0001C4B9A898A62DA89CA6210229B5E0B6362
:1020E00000F028F9BFF34F8F174A184BDA60BFF39F
:1020F0004F8FC046FDE7C046C4100020501000209E
:102100001810002055150000BC100020F32400001A
:102110000410002048130020D204000044120020C4
:102120009C100020981100200DDBFFFF00E100E073
:10213000F8100020A8120020006800107011002084
:1021400048110020201100200400FA0500ED00E0F5
:102150002A4B2B4A998870B5918119892948D181D8
:102160009989294D118209B2884050618020C001AF
:1021700088402421906100202E1C244C505420398A
:102180009060D1611462198A214A9181998AD5613E
:10219000D181198B9060118209B28E405661261C44
:1021A0008E4096612E1C998B14621A4A9181198C6B
:1021B000D181998C118209B28E405661261C8E40C5
:1021C000D56196611462198D9060134A9181998D41
:1021D0009060D181196B1E238CB25B1A012199404A
:1021E0000B1C21B214825C428B40936191238C4082
:1021F0005B00D361094B5461136270BDA8120020CB
:10220000F810002000C0FFFF0080FFFFFF7F0000EC
:102210007011002048110020201100208846000085
:102220001A2108B51C4B02221960193999649121B1
:102230008900D960102159620839DA629962002256
:102240000C31196280219A605A605A61DA611A86EB
:102250005A86DA631A645A641A655A659A650F4B8E
:10226000C90159838021C9051A83D96059610C4B72
:102270000C499983B421090159620B4B1A605A60C9
:102280009A600A4B5A809A80FFF762FFFFF7D0FDF1
:10229000FEF74AFF08BDC046441200209C100020F3
:1022A0005010002055080000C41000201810002015
:1022B0001A211A4A08B511601939916491218900CF
:1022C000D160102151620839002391620C311162F2
:1022D0008021936053605361D3615386D363136449
:1022E00053641365536593650D4AC9015183802179
:1022F000C9051383D16051610A4A0B499183B42106
:1023000009015162094A136053609360084A53807F
:102310009380FFF71DFFFFF78BFD08BD44120020DF
:102320009C1000205010002055080000C410002010
:102330001810002008B58223021C5B00081C1B68D3
:10234000111C984708BDC046F0B503244746261C1B
:1023500080B4F8270E40F600B7408B089B00C318E6
:102360001D69B046BD434F00BC401D61456F04264A
:10237000A543456707250D40AD00AE40CC08A4003D
:102380000419276CB74327645678276CAE40351C78
:102390003D4325640A4CA0420CD0546812788C400E
:1023A000446040468240161C19690E431E6104BCFD
:1023B0009046F0BD01258D40046EAC430466ECE709
:1023C00000020440C0230421084A5362536A1942A0
:1023D000FCD18021064AC9051369184310611368AE
:1023E0000B42FCD1C322014B5A62704700000140EE
:1023F00000030140F8B5C02304242D4A5362536AF8
:102400001C42FCD1FF232B4A1468156824049D4309
:10241000294B240E2B430B4380211360C9051368FD
:102420000B42FCD1844229D98021244B8600214AC9
:102430009C46214FC905B4420CD965461368A408CF
:102440002B403B4325022B43136013680B42FCD106
:10245000B442F2D8174A194B116800020B401649D2
:102460000B43802103431360C90513680B42FCD161
:10247000C3220F4B5A62FEF713FEF8BD80210D4AAE
:102480000F4F0D4EC905A3009842E3D9002C0AD086
:10249000A5021C1C13683B4033432B431360136895
:1024A0000B42FCD1EFE780250424ED00F2E7C046A3
:1024B00000000140000301400000F03FFF000FC09A
:1024C000EB00FFFFC02304210B4A10B55362536A8F
:1024D0001942FCD182684168084C11432368084ABC
:1024E0001340C3220B432360034B5A6243780178A5
:1024F000181CFFF77FFF10BD0000014000030140E2
:10250000FFFFF0FF38B50A4B041C0D1C984202D1A6
:102510000420FFF757FF8022E36852001343E36073
:102520002168044B0B40A9031943216038BDC04604
:1025300000000448FF3FFFFF302203680901934376
:10254000194301607047C04638B5A023041C0D1C18
:10255000DB05984202D10220FFF734FF8022E368B6
:1025600052001343E3602168024B0B40A903194357
:10257000216038BDFF3FFFFF01230269134314228E
:1025800003610B6843614B7BDB06DB0F1B0543607C
:102590000B7B1B071B0F43620B7B1B09C3624B7B2F
:1025A0001B071B0F03624B6883618B685340836476
:1025B0007047C04610B503244368A34319434160E4
:1025C0004369012A03D0044A1340436110BD8022AD
:1025D000D2001343F9E7C046FFFBFFFF802310B58D
:1025E00044689B02234343604369002A08D0802249
:1025F00092031343012907D0054A1340436110BDDC
:10260000044A13400129F7D18022D2031343F5E78E
:10261000FFFFBFFFFFFFDFFFF0B54E1EF6B27400F5
:10262000E4B2251C1035EDB24746AC4680B4032514
:102630006746A846BD4003681531AB435578C9B21B
:10264000BD402B4301258D40AB43957847468D40D7
:1026500019342B43D578E4B2A740A5400F24B60027
:10266000F1B212788C408A40BB432B43A3431343FF
:10267000036004BC9046F0BD41637047A82330B5A9
:10268000C55809290BD8074B8900CC58E343064CA1
:1026900009598A402B401A43A823C25030BD0C214F
:1026A000024BF6E72C32001054320010FFCFFFFF30
:1026B0004B6803658B6843650B68C3647047C0460D
:1026C00010B503248B082140C9008A40F5348C40A2
:1026D000111C9B00C0180369A343036103691943DC
:1026E000016110BD0422034B5A6318625962986A53
:1026F0007047C04600000340FF2238B50D1C041C83
:102700000D4B01201A60FFF75DFE6B69236080238B
:102710006A681B0213438022A350A023AA68E250D8
:10272000EA680433E2502A69DD33FF33E2502A6855
:10273000C93BFF3BE25038BD0005014080238021AA
:10274000C25809060A43C2500C4AD158C0239B0202
:10275000194205D080218020490513580B42FCD135
:102760008023074AD158C0239B02194205D08021FB
:102770008020490513580B42FCD1704700040348E0
:1027800000080348A023C2589C46304BF0B51A40BD
:10279000141C1F274A792E4D5207520D22430C79E3
:1027A000BA43E406E40E2243644602510259294E1C
:1027B0002A40141CCA795207520922438C793240AC
:1027C000E406E40A224364460251043402591A40E2
:1027D0004B7A5B075B0D13430A7ABB43D206D20EDA
:1027E0001343035103598A7A1D40CB7AD2065B0703
:1027F0005B092B433340D20A1343035180230A69F8
:10280000C250CA683833C250CB781D07DF069C0619
:102810005B06DA0F4B88FF0F9B059E090B78802122
:102820005B075B0F3343F826760083518359090613
:102830003F070B43AD0F3B43AD06E40F2B4364074B
:102840002343191C93070B438351F0BDFFF8FFFF8F
:10285000FFFFFFF8FFFFE0FF802210B5032483583D
:10286000A3431943815010BD9142924152428918AD
:10287000C02210B503248358A3431943815010BDCF
:10288000C022032183588B4383507047C0221023FA
:1028900081580B438350704730B59B00002A0FD0FE
:1028A000012A00D030BD90320F2599409D400B1C6D
:1028B000FF328458AC438450845823438350F1E75B
:1028C0008132F1E770B58425032642591B4B0C7801
:1028D000134043514359B3431A1C23079B0F13431F
:1028E00034401CD00822134343514A68144B13430D
:1028F0008022520083508B68FF3A13430432FF3228
:102900008350022C04D18021835849020B43835009
:1029100084228021835849040B43835070BD435166
:102920004A68074B13438022520083508B68FF3A5A
:1029300013430432FF328350EAE7C046FFFFFFFE35
:102940000080808070B5012488258C404359A343C2
:10295000147B8C4023434351537B5CB2002C0CDB33
:10296000012921D0002917D01C1C002364B29C40EF
:10297000B026231C85592B438351C824556803591D
:1029800080312B43035108349568035989002B4348
:10299000035113680B5070BDB0241F250359AB437E
:1029A0000351547B0023E1E7B024034B05592B402E
:1029B0000351547B0823D9E7FFE0FFFF10B5041C47
:1029C00080208000FFF7FEFCA268034B5A6062681B
:1029D0001A6122685A6110BD000002407047C0466B
:1029E0002548264B026810B59A4225D02449254A2D
:1029F0000B60254B254C4B6008238B600733CB6065
:102A000002338B614B62B833FF338B62AF3BFF3BCA
:102A1000CB620A3B0B630D3B0C614A61CC610A62DD
:102A20004B63FFF787FCBFF34F8F194A194BDA60EE
:102A3000BFF34F8FC046FDE7114B1A6042685A60E2
:102A400082689A60C268DA6002691A6142695A61F2
:102A500082699A61C269DA61026A1A62426A5A62DA
:102A6000826A9A62C26ADA62026B1A63426B5A63C2
:102A7000FEF76EFFFEE7C04600680010121000006F
:102A8000A8120020795D0000FF7F0000717D00002A
:102A90000400FA0500ED00E08446081C6146FFE7EB
:102AA0001FB500F0A7F8002801D40021C8421FBDBF
:102AB00010B500F02BF84042013010BD10B500F009
:102AC00099F8002801DB002010BD012010BDC04690
:102AD00010B500F08FF8002801DD002010BD0120A6
:102AE00010BDC04610B500F03BF8002801DC002006
:102AF00010BD012010BDC04610B500F031F800280F
:102B000001DA002010BD012010BDC046430270B59F
:102B100042004C005D0AC30F4802120E460A240E02
:102B2000C90FFF2A05D0FF2C08D00120A2420BD0EC
:102B300070BD0120002DFBD1FF2CF6D10120002E0D
:102B4000F6D10120A242F3D1B542F1D18B4205D09A
:102B5000002AEDD1281C431E9841E9E70020E7E751
:102B6000F0B543024D024A0044005E0A240EC30F32
:102B70006D0A120EC90FFF2C0DD0FF2A31D0002C88
:102B80000DD177427741002A23D1002D21D1002099
:102B9000002F0BD107E0002E28D1FF2A21D0002AD8
:102BA00005D08B4207D0584201231843F0BD002DB9
:102BB000F9D08B42F7D19442F5DC04DBAE42F2D877
:102BC0000020AE42F2D25842434101205B421843FA
:102BD000ECE7002FE5D0484241410120494208433B
:102BE000E4E7002D02D1002CCBD0DAE702204042EE
:102BF000DCE7C0464302F0B542004C005E0AC30F5A
:102C00004802120E450A240EC90FFF2A0FD0FF2CCE
:102C10001AD0002A10D177427741002C29D0002FFA
:102C200017D0484241410120494208430BE00220AD
:102C3000002E08D1FF2C07D0002C0AD1002D08D17E
:102C4000584201231843F0BD0220002DFBD1002A79
:102C5000E1D08B42F4D1A242F2DC04DBAE42EFD8E9
:102C60000020AE42EFD25842434101205B4218435C
:102C7000E9E7002DD3D10020002FE4D1E0E7C046E2
:102C800010B5041E35D000F043F89E21091A96298C
:102C900009DC082830DD021C231C083A93405B0243
:102CA0005B0AC8B220E099290CDD0522231C121A08
:102CB000D3401A1C031C1B339C40231C5C1EA341E5
:102CC00013431C1C052801DD431F9C400F4B234070
:102CD000620704D00F221440042C00D004335A01A0
:102CE0000ED49B015B0AC8B25B025B0AC0051843A5
:102CF00010BD00200023F7E763025B0AC8B2F3E7C8
:102D00009F21024A091A1340EBE7C046FFFFFFFB71
:102D10001C2101231B04984201D3000C10391B0A0B
:102D2000984201D3000A08391B09984201D30009CF
:102D3000043902A2105C40187047C0460403020226
:102D40000101010100000000000000000E4B70B501
:102D500000251E1C0D4CE41AA410A54204D0AB00A3
:102D6000F35898470135F8E7FFF738FE084B002580
:102D70001E1C084CE41AA410A54204D0AB00F35862
:102D800098470135F8E770BD082E0010082E001096
:102D9000082E0010082E001001B40248844601BC21
:102DA000604700BF190F002001B40248844601BCEF
:102DB000604700BFE908002001B40248844601BC16
:102DC000604700BFE906002001B40248844601BC08
:102DD000604700BF6106002001B40248844601BC80
:102DE000604700BFBD0E002001B40248844601BC0C
:102DF000604700BFA50E002001B40248844601BC14
:082E0000604700BFCD0E002069
:102E08003E1200103213001032130010321300105B
:102E18003213001032130010321300103213001056
:102E28003213001032130010321300105212001027
:102E38003213001066120010321300103213001003
:102E48003E1200107A12001090120010A412001006
:102E5800B8120010CC120010E2120010F612001086
:102E68000A1300101E130010321300103213001042
:102E780032130010521200103213001032130010D7
:102E880032130010321300103213001032130010E6
:102E980032130010321300103213001032130010D6
:102EA80032130010321300103213001032130010C6
:102EB80032130010321300103213001032130010B6
:102EC80032130010321300103213001032130010A6
:102ED8003213001032130010321300103213001096
:102EE8003213001032130010321300103213001086
:102EF8003213001032130010321300103213001076
:102F08003213001028120010537065656420526552
:102F180066202872706D290020627920504F542055
:102F280041444300202D3E53746F7000202D3E31E4
:102F380030250000202D3E3230250000202D3E3364
:102F480030250000202D3E3430250000202D3E3550
:102F580030250000202D3E3630250000202D3E373C
:102F680030250000202D3E3830250000202D3E3928
:102F780030250000202D3E3130302500202B353003
:102F88002072706D00000000202D35302072706DA9
:102F980000000000206E6F206368616E67650000A6
:102FA8000D0A0A0A434355382054726170212C20B7
:102FB8006B657920696E2030000000000D0A204101
:102FC800444320426961733A000000000D0A2072F0
:102FD800706D3A000909205265660000202D000036
:102FE800202B00000920504F54000000EE0700205D
:102FF8000A0800201C080020A8070020D20700208B
:103008000D0A496E66696E656F6E20464F430D0A5C
:10301800000000000D0A0A434355382054726170BD
:1030280021210000000086000C01920118029E0276
:103038002403AA033004B6043C05C1054706CD069F
:103048005307D9075F08E4086A09F009750AFB0AFB
:10305800800B060C8B0C110D960D1B0EA00E260F67
:10306800AB0F3010B5103911BE114312C8124C13F2
:10307800D1135514D9145D15E2156616EA166D17A5
:10308800F1177518F8187C19FF19821A051B881B87
:103098000B1C8E1C101D931D151E971E191F9B1FA0
:1030A8001D209F202021A2212322A4222523A623FC
:1030B8002724A7242825A8252826A8262727A727A0
:1030C8002628A5282429A329222AA02A1F2B9D2B9C
:1030D8001B2C982C162D932D112E8E2E0A2F872FF0
:1030E80003307F30FB307731F3316E32E9326433AD
:1030F800DE335934D3344D35C7354036BA363337D5
:10310800AB3724389C3815398C39043A7B3AF23A73
:10311800693BE03B563CCC3C423DB83D2D3EA23E8F
:10312800173F8B3F00407340E7405B41CE41404230
:10313800B3422543974309447A44EB445C45CD4563
:103148003D46AD461C478C47FB476948D848464929
:10315800B449214A8E4AFB4A674BD44B3F4CAB4C8F
:10316800164D814DEB4D564EBF4E294F924FFB4F9A
:103178006350CC5033519B5102526952CF52355350
:103188009B5300546554CA542E559255F5555856BC
:10319800BB561D577F57E1574258A35804596459E5
:1031A800C459235A825AE15A3F5B9D5BFA5B575CCC
:1031B800B45C105D6C5DC75D225E7D5ED75E315F7D
:1031C8008A5FE35F3C609460EC6043619A61F161FF
:1031D80047629C62F26246639B63EF634264956454
:1031E800E8643A658C65DD652E667F66CF661F6785
:1031F8006E67BD670B685968A668F36840698C6993
:10320800D769226A6D6AB76A016B4A6B936BDC6B8C
:10321800246C6B6CB26CF96C3F6D846DCA6D0E6E6C
:10322800526E966E03000000030000000C000000C0
:103238000C000000300000003000000000300000EA
:103248000030000000030000000C00000000000037
:10325800000000000200000002000000040000005E
:10326800040000000C0000000C0000000800000032
:043278000A00000048
:103280002C488746000000000000000000000000FD
:10329000000000000000000000000000000000002E
:1032A00025488746000000000000000023488746AC
:1032B000234887462348874623488746234887462E
:1032C000234887462348874623488746234887461E
:1032D0002348874600000000224887462248874648
:1032E0002248874622488746224887462248874602
:1032F00022488746224887462248874622488746F2
:1033000022488746224887462248874622488746E1
:1033100022488746224887462248874622488746D1
:10332000224887462248874600000000000000002F
:10333000204887469910001099100010991000102D
:103340009910001099100010991000109910001099
:103350009910001099100010991000109910001089
:103360009910001099100010991000109910001079
:103370009910001099100010991000109910001069
:103380009910001099100010991000109910001059
:103390009910001099100010991000109910001049
:1033A0009910001075080020DD1B00109910001006
:0833B0009910001099100010A3
:1033B800780000000000000000000000000000008D
:1033C80000030000000401000000000000000000ED
:1033D80000040000000000000100010000000000DF
:1033E80000000000000000000000010000000000D4
:1033F800000000000001000027000000000000009D
:1034080000000000000000000000000000000000B4
:103418000800000021000000000000000100010079
:10342800000000000000000000000000000007008D
:10343800000000000000000000FF0000260000005F
:10344800000400000000000000000000000300006D
:10345800A00000000D000000004F04000400000060
:1034680000000600000000000000000000FF00004F
:10347800040000000000000005000000000000003B
:103488003F000000000000000000000004000000F1
:103498000000000003000000000000000701000019
:1034A800000001030001000000000100000000000E
:1034B800800000000100000047010000000000003B
:0434C80001000000FF
:1034CC0070B5C0241C4EA40033599DB21B4B1B5924
:1034DC009CB2C1239B00F3589BB2022817D800283A
:1034EC0011D113805480958081420BD002291DD8B4
:1034FC00002912D1B02312490F4AD15004210F4A8E
:10350C00FF31D15070BD148053809580ECE70528B5
:10351C00E7D0158054809380E6E7B0230949064A2A
:10352C00D1500239054AFF39D150EBE70529E1D0DA
:10353C00C121B0238900DFE70008034800040348D9
:10354C000304000003020000FF22F0B5544D090AE9
:10355C002B884C006B80131C091949000B40514FF0
:10356C00D21A52005B00D45BDB5B444358434E4A97
:10357C00E413C01354434243E40BD20BA6B293B2F0
:10358C00F218090A97B2494A89B22980944697429F
:10359C001DD9474A474B240453636346240C6343A9
:1035AC0013625762136B002BFCD1414B424C9E6A49
:1035BC003E4BB6B29B1B414A9BB2BB205B08A8801A
:1035CC007608042912D83E48890041588F46D01BF2
:1035DC00E02280B2920090425ED960467A08841A4A
:1035EC0000205B08A88076080429ECD9354BDA63F7
:1035FC0000225C64344BDA63344A5A64344A2B4BF1
:10360C00D6639E1B56640CE000212E4BD9632F49C8
:10361C0059642D49254BCE639E1B2D4B4E64DA63AA
:10362C005C64A0221221D2051369FF310B43136194
:10363C00F0BD24481D49C363CB1A00214364224BBF
:10364C00D96322495964224BDA635C64E9E71D496A
:10365C00CA634C64154A1C49CB63D31A4B640022D1
:10366C001B4BDA63194A5A64DBE716490F4BCE63DE
:10367C009E1B154B4E64DA635C64F0E70020114925
:10368C00C863124848641049CA634C64074A10491D
:10369C00CB63D31A4B64C4E760467A08841A8CE770
:1036AC00181000202C300010AA100000AB100000E5
:1036BC000000034004850500560800005508000072
:1036CC00F42F00100001005000020050AC1000005C
:1036DC000003005010B5184CE36A022B28D012D905
:1036EC00032B0DD0062B20D100F0A6FB00F050F9D7
:1036FC00A268D3009B189A019B18DB0A236110BDAA
:10370C0000F0A2FBF2E7002B0FD100F075F900F0EE
:10371C002FF80A4B9A68D989900B80B2FFF714FFE7
:10372C00074B1A88074B5A83E0E700F06DFBDDE787
:10373C0000F07AFBDAE7C046441200209C1000200F
:10374C00181000209811002030B5084CA568281AD4
:10375C0000B2C0001860E068411A09B2C900596093
:10376C0021698A1A12B2D2009A6030BD5010002022
:10377C00812280202B4992008B588000034370B526
:10378C008B50C623284C294A9B00D358616A1B04D2
:10379C004A01521A1B0CD3185B116362C123244AD1
:1037AC009B00A16AD3584A011B04521A1B0CD31854
:1037BC00204D214E5B11A362E868331C01210122CC
:1037CC0000F074FA236A312B03DC336DEA68934200
:1037DC001BDD6B8E002B17D0C023144A5B00D35813
:1037EC005B0611D5D822636A1201934216DD0723BA
:1037FC008022EB62114B12055A60C82240230B4900
:10380C005200885803438B5070BD0D4BAA689A42E6
:10381C00DFD80023EB630333EB62DAE7094A934208
:10382C00EBDCE4E7000003485010002000080348DC
:10383C000004034844120020C8110020000004407A
:10384C00CB060000FF0800000C4910B58B6B002B59
:10385C000AD00B4A0B48D468C0228369D201A2401B
:10386C00934202D300238B6310BD8022D201944675
:10387C00634483615B424361F6E7C0464412002017
:10388C00A8120020F810002030B5039C2568854252
:10389C001ED011DA1448026C456A01320264AA4245
:1038AC0009D98D4201DD013D45622268944663448D
:1038BC0023600023036430BD0B48016C01310164AB
:1038CC009142F8D92268D31A236000230364F2E7EB
:1038DC00054AD36B0133D363022BECD9AB2353864C
:1038EC000023D3631364E6E744120020F0B5059D72
:1038FC002C6884423FD017DA224C226C666A013263
:10390C002264B2420FD991272A68BF00801AB842AC
:10391C0026D849008E4202DA013666622A689B1864
:10392C002B6000232364F0BD164C216CA66A013178
:10393C002164B142F7D92968081A9121890088427B
:10394C0014D8B24201DD0136A6620F4A516A0F4A01
:10395C00914202DC2A68D31A2B6000232364E2E72D
:10396C00B142DCDA013E66622A68D8E7B242ECDA90
:10397C00013EA662E9E70020024B49001864596237
:10398C009A62D0E744120020501000205B0D00001A
:10399C0008B5144B9A6C0132402A21D900229A6442
:1039AC00114A1249126A081C4A43120B8A4209D95D
:1039BC000F4A1049D86091601A6D0132032A0AD857
:1039CC001A6508BD101C0B49094AD86091601A6D24
:1039DC000132032AF4D900221A6500F01DFAF0E72F
:1039EC009A64EEE74412002050100020AEB700009D
:1039FC0000000240FECAADABF0B5454657464E46F8
:103A0C00954BE0B49846954C1A1C82B0208B618B78
:103A1C00FFF756FD4346924E18889A885988331CF6
:103A2C00FFF792FE8F4D904B2A69904F9A605B681E
:103A3C008F4A3B649288736830689C46B368002A4E
:103A4C0000D0C2E061464200C918501A624689494A
:103A5C00D31A894A41435A438848016042606A201C
:103A6C000126874B5864E8681865D9649A64608BA2
:103A7C0020831C6C82482642FBD1436D846D8148A7
:103A8C009B13814638204E46FF3043431B12736014
:103A9C00A31358437C4C00123060E06800F032F9FC
:103AAC0073689C4662463B6D9E1A2422774B1E60BF
:103ABC009A5C002A00D17CE098689A8972431118AC
:103ACC0010201A5E724E11410A1E3160196AD869B3
:103ADC008A4203DC824200DB92E0011C0122596025
:103AEC0024201A5443469A6A6A4B61609A4203D85E
:103AFC00694B9C4500D87BE0FB8B052B00D974E00F
:103B0C00281C00F00BF9654B5A680095A1683B68BE
:103B1C00686800F00BF94B4624211B68FA6CD21A2A
:103B2C005F4B1A60595C002937D0986899894A43D1
:103B3C00111810201A5ED86911410A1E3160196AD9
:103B4C008A4203DC824200DB6CE0011C01225960DA
:103B5C0024201A54281C216000F00EF96222484ED1
:103B6C0023687264EA689B0332656268281C9203BE
:103B7C00F264B36400F006F9736DA360F26D9B0BF5
:103B8C00E2603822FF3253431B0A9B03A36002B04E
:103B9C001CBC90469946A246F0BD9968D8898C46C3
:103BAC005043996960445F69884234DD9960081C10
:103BBC00BCE79A68D88992467043996950445A690F
:103BCC00884221DD9960081C77E7228B022A2DD8C8
:103BDC00002A37D16246D118D31A274A27485A43AC
:103BEC00494289030160426039E7043BFB8387E764
:103BFC00FB8B2C4A934200D982E70233FB837FE78D
:103C0C005A60111C00226BE7011E9142DADA111C7A
:103C1C009960081C51E7011EB942C7DA391C99603A
:103C2C00081C83E75A60111C002291E7052AD1D0A9
:103C3C0063465B00C218104B104E5A43810331602F
:103C4C0072600CE75B00C218174B0C4E5A43810391
:103C5C003160726003E7C0465010002098110020BC
:103C6C00C41000205413002044120020C81100205E
:103C7C001810002055150000F3240000BC10002083
:103C8C0000000340D81000209C1000207011002070
:103C9C000C100020D7090000AEB700002011002046
:103CAC0048110020FF0F00000DDBFFFF30B5104D59
:103CBC002C6801342C60002C06D11C6D0D4A9442EA
:103CCC0001D90D4A1A6530BD00242C601C6D84424C
:103CDC0002DA64181C65F1E78442EFDD9442EDDBF7
:103CEC000649486A06498842E8DCA41A1C65E5E7DF
:103CFC0008100020AEB70000ADB700005010002037
:103D0C005B0D000010B56224034B40425C641865E7
:103D1C00DA64996410BDC04600000340024B5A6D32
:103D2C000260DB6D436070470000034030B56A25CC
:103D3C000F4B039C5D6418650020D864996438218E
:103D4C002368FF319B0B4B431B0A5900C918890090
:103D5C002360D210CB185343DA0B01230548018A98
:103D6C008B40416A013B594353189B08436230BD59
:103D7C0000000340C8110020014B9B6D836070470D
:103D8C000000034083681E499A133823FF335343C2
:103D9C001A120B6A30B55C00E3188260D3184A6AB9
:103DAC009B100B629A18174B52429C68D989A446F7
:103DBC0051439C6961445D69A14202DC0C1EAC421A
:103DCC001BDB99899C604A43A2181024195FDC699B
:103DDC000A41196A8A4202DC111EA1420BDBC2683D
:103DEC00596094464B036344C36003699C46614429
:103DFC004908016130BD211CF1E72C1CE1E7C046EC
:103E0C00C81100202011002001B40248844601BCD6
:103E1C00604700BF011C001001B40248844601BC7D
:103E2C00604700BF4511001001B40248844601BC34
:103E3C00604700BF5D1C001001B40248844601BC01
:103E4C00604700BFE51C001001B40248844601BC69
:083E5C00604700BFC11F001008
:0400000510001019BE
:00000001FF
